:020000040800F2
:10000000C0AF002099020008A1020008A302000866
:10001000A5020008A7020008A902000800000000CD
:10002000000000000000000000000000DD010008EA
:10003000AD0200080000000031020008752200082F
:10004000B3020008B3020008B3020008B3020008BC
:10005000B3020008B3020008B3020008B3020008AC
:10006000B3020008B3020008B3020008B30200089C
:10007000B3020008B3020008B3020008B30200088C
:10008000B3020008B3020008B3020008B30200087C
:10009000B3020008B3020008B3020008B30200086C
:1000A000B30200089D230008B3020008B302000851
:1000B000B3020008B3020008B3020008B30200084C
:1000C000B3020008B3020008B3020008B30200083C
:1000D000B3020008B3020008B3020008B30200082C
:1000E000B3020008B3020008B3020008B30200081C
:1000F000B3020008B3020008B3020008B30200080C
:10010000B3020008B3020008B3020008B3020008FB
:10011000B3020008B3020008B3020008B3020008EB
:10012000B3020008B3020008B3020008B3020008DB
:10013000B3020008C9030008B3020008B3020008B4
:10014000B3020008B3020008B3020008B3020008BB
:10015000B3020008B3020008B3020008B3020008AB
:10016000B3020008B3020008B3020008B30200089B
:10017000B3020008B3020008B30200080000000048
:10018000B3020008B3020008B3020008B30200087B
:10019000B3020008B3020008B3020008B30200086B
:1001A000B3020008B3020008B3020008B30200085B
:1001B000B3020008B3020008B3020008B30200084B
:1001C000B3020008B3020008DFF80CD000F0A8F872
:1001D00000480047313E0008C0AF00202B4B196893
:1001E0000868B0E8F04F80F30988BFF36F8F4FF0D5
:1001F000000080F311887047000000000648006886
:10020000006880F3088862B661B6BFF34F8FBFF312
:100210006F8F00DF00BF00BF08ED00E0DFF80C00CB
:10022000016841F470010160704700BF88ED00E093
:10023000EFF30980BFF36F8F144B1A681EF0100F95
:1002400008BF20ED108A20E9F04F106008B44FF08D
:10025000500072B680F31188BFF34F8FBFF36F8FDA
:1002600062B607F07BF94FF0000080F3118808BCFC
:1002700019680868B0E8F04F1EF0100F08BFB0EC26
:10028000108A80F30988BFF36F8F70474C000020FD
:10029000EFF3058070470000064880470648004796
:1002A000FEE7FEE7FEE7FEE7FEE7FEE7FEE7FEE726
:1002B000FEE7FEE749230008C901000840EA010300
:1002C0009B0703D009E008C9121F08C0042AFAD20C
:1002D00003E011F8013B00F8013B521EF9D27047D0
:1002E000D2B201E000F8012B491EFBD27047002278
:1002F000F6E710B513460A4604461946FFF7F0FF25
:10030000204610BD30B504460020034600E05B1CCB
:10031000934203D2E05CCD5C401BF8D030BD0000BE
:10032000064C074D06E0E06840F0010394E8070042
:1003300098471034AC42F6D3FFF74AFF0883000811
:100340002883000870B58C1810F8015B15F00703BE
:1003500001D110F8013B2A1106D110F8012B03E05E
:1003600010F8016B01F8016B5B1EF9D12B0705D466
:100370000023521E0DD401F8013BFAE710F8013BAF
:10038000CB1A921C03E013F8015B01F8015B521ECB
:10039000F9D5A142D8D3002070BD38B50446006815
:1003A00000F58050816941F480118161206800F579
:1003B000805080690090012000F09EF8206800992C
:1003C00000F58050816138BD014800F05CB9000043
:1003D0007C3600202DE9F041044621B14FF4006045
:1003E000E060C000A060E0690026002861D03546CA
:1003F0002068402702683A490A40D4E902131943A9
:10040000294341F40071114301602068056801200F
:1004100000F072F820680560206847602068456831
:10042000012000F069F82068456020688660206837
:10043000C660206881694FF64172114041F0800129
:10044000816120688569012000F056F82068856187
:100450002068C6612068C569012000F04DF8206859
:10046000C561206800F5805081691E4A11401E4A0E
:100470000A438261206800F580508569012000F000
:100480003BF8206800F5805085612068174900F529
:1004900080500160206800F580500568012000F060
:1004A0002BF8206800F580500560A069012803D072
:1004B00009E04FF480659BE7206800F58050C16932
:1004C0000B4A1143C16160690A4A8188116401784D
:1004D000D0F8010041EA00205064BDE8F08100003E
:1004E0000F8120FF233FDEF8040020028020C1029C
:1004F000400001000080024031B500F08FFC04464E
:1005000000F08CFC0099001B8842F9D338BD2DE91E
:10051000F04390F845500024012D0DD04FF0010913
:1005200080F84590022580F844505F1E44F2F45C48
:100530004FF00048816216E00220BDE8F08301EB35
:100540004415C5F80080C4EBC416BC4206EB460651
:1005500002EB8606C5E901C603D205F12006EE606E
:1005600000E0E960641C9C42E9D3026802F5805215
:10057000D16080F84490002180F845100846DCE7FF
:100580002DE9F04390F845400025012C0BD04FF0A9
:10059000010C80F845C0022480F844405F1EC1620F
:1005A0004FF480191BE00220BDE8F08301EB4514F5
:1005B000C4F80090C5EBC51606EB460602EB8606AE
:1005C000A660C6691EB9266846F440062660BD428C
:1005D00003D204F12006E66000E0E1606D1C9D425C
:1005E000E4D3026802F58052116180F844C0002112
:1005F00080F845100846D7E7704730B590F84510A9
:100600000022012908D0012380F84530022180F81A
:100610004410816A00241AE0022030BD0D68521C8B
:10062000C5F30125022D0AD00D6815F4407F09D0CD
:100630004163826B521C8263012A13D013E08363EF
:10064000016302E0856B6D1C8563C96881620D687A
:10065000002D01DB042AE1D380F8443080F84540C6
:10066000012030BD01630A68C2F30D42121FC2634C
:10067000026B92680264C968816280F8443080F835
:100680004540002030BD70B50446006800F580503C
:1006900041694FF000064FF00105490608D5204694
:1006A00000F0BCF92068402100F58050416109E06C
:1006B0004069C0070AD0204600F07EFA206800F5A5
:1006C0008050456184F8445084F845604FF480318F
:1006D000206800F580504161206800F58050406935
:1006E00000040CD52046FFF787FF20684FF4004137
:1006F00000F58050416184F8445084F8456070BD35
:100700002DE9FC474FF000060400B146009603D0E7
:1007100094F8440018B107E00120BDE8FC872046AA
:1007200084F8456000F0E2F86648016841F48041D1
:100730000160006800F4804001906348016821F482
:10074000000101600168226A11430160206800F520
:100750008050016841F00101016000F05FFB4FF43F
:10076000FA77054608E000F059FB401BB84203D970
:10077000032084F8440067E0206800F5805000689A
:10078000C007F0D12068006920F01C0501F0F0F8E6
:100790004E494F4A0144914202D245F0080516E005
:1007A0004C494D4A0144914202D245F00C050EE0FD
:1007B0004A494B4A0144914209D34A4908444A49AB
:1007C000884202D245F0040501E045F0100520689A
:1007D000056100214FF40042204600F0EEF90125AA
:1007E000B0BBFF20FFF788FE606890B300F016FBF7
:1007F000804641F2883701216A46204600F0CCF855
:1008000000F00CFBA0EB0800B84217D80098400796
:10081000F1D5002120464FF4805200F0CEF9B8B94E
:1008200000F0FCFA80466A460121204600F0B4F848
:1008300000F0F4FAA0EB0800B8420BD901212046E1
:10084000FFF7C8FD84F84450032084F8456064E74E
:1008500024E018E000988006E5D510216A4620467D
:1008600000F09AF8D0B90098410703D54FF4006121
:10087000E16000E0E660800701D5A66019E04FF472
:100880008040A06015E0E068A168C00840EA51001F
:1008900082B22046002100F090F930B101212046BB
:1008A000FFF798FD84F8445036E740F6FF70FFF7F5
:1008B00023FE49462046FFF78DFD84F84450002072
:1008C0002BE70000443802400438014000D3CEFE3C
:1008D000C0E1E40040F1E9FD40787D0100796CFC65
:1008E000005A6202001F0AFA80F0FA02F0B50068AE
:1008F00087B02349884241D12248016841F0007104
:100900000160016801F000710591016841F08061AA
:100910000160016801F080610591016841F00061AA
:100920000160006802240025694600F0006005901F
:10093000322003260B278DE8F100134800F07AF9E6
:10094000862069468DE8F100104800F073F9200315
:1009500069468DE8F1000E4800F06CF94FF4205024
:1009600069468DE8F1000B4800F064F9002205218A
:100970003D2000F0DFFA3D2000F0D0FA07B0F0BDD6
:10098000008002403038024000080240000002406F
:1009900000040240001802402DE9F047044690F898
:1009A0004400914682281DD0822084F844002068AB
:1009B00002694FF6FF7502F01C03228A05EAC22283
:1009C0001A434FF4F86303EA8111114321F0020145
:1009D00041F00105056100F021FA012706464FF4B8
:1009E000803810E00220BDE8F08700F017FA801B85
:1009F000404506D384F84470002084F84500032065
:100A0000F1E720680569E807EFD12068406981B205
:100A1000C9F8001084F844700020E4E70148006839
:100A200003F038BC1C000020F8B5044690F84500DF
:100A3000012839D0012584F84550022084F844006B
:100A400020680026016841F0080101602068006804
:100A500000902846FFF750FD216800980860206844
:100A6000016841F0040101602068006800900120E5
:100A7000FFF742FD2168009808602046FFF78DFCD3
:100A8000206800F58050816941F40051816120683F
:100A900000F58050816941F00201816184F8445081
:100AA000002084F84560F8BD0220F8BDF0B590F84C
:100AB00045300022012B12D0012780F84570022317
:100AC00080F84430002561B1C46A2368002B0BDA3A
:100AD000122180F8441080F845500120F0BD02201A
:100AE000F0BD80F84470F6E740F2F456B1420BD9FD
:100AF000B1FBF6FCB1FBF6F306FB1C1CBCF1000FCE
:100B000000D05B1C012B43D1226842F0405222608E
:100B1000C26AC1F30C015160C16A0A6842F0004226
:100B20000A60C16AC968C16234E0D4F800C02CF020
:100B3000405CC4F800C032B9C46AD4F800C04CF0BC
:100B4000805CC4F800C0C46A66605C1EA24214D116
:100B5000C46AD4F800C04CF0005CC4F800C0C3F113
:100B60000104D0F82CC0C4EBC41404EB440401EB22
:100B70008404C4F30C04CCF80440C46AD4F800C064
:100B80004CF0004CC4F800C0C46A521CE468C46253
:100B90009A42CAD3016801F580514A69520705D5C6
:100BA00004224A61016801F580514D6080F844706B
:100BB00080F845500020F0BD70472DE9F041044613
:100BC00090F8440042281ED0422084F84400206857
:100BD00003694FF6FF7603F01C05238A06EAC32358
:100BE0002B434FF4F86505EA8111194341F00305E1
:100BF00091B241612068056100F010F901270646B5
:100C00004FF4803810E00220BDE8F08100F006F9D2
:100C1000801B404506D384F84470002084F84500CA
:100C20000320F1E720680569E807EFD184F84470F4
:100C3000EAE700002DE9F84FDFF8A09100224FF01D
:100C40000F0809F1040A0AF1040B0BF1040E0B68FA
:100C5000012696403340B34271D14C68022C01D03A
:100C6000122C11D1D40800EB84073D6A5407E40E1E
:100C700008FA04FC25EA0C05D1F810C00CFA04FCB3
:100C80004CEA050CC7F820C00768540091F804C06E
:100C90000325A5400CF0030CAF430CFA04FC4CEA0E
:100CA000070CC0F800C04F68012F05D0022F03D0F9
:100CB000112F01D0122F11D18768D1F80CC0AF438A
:100CC0000CFA04FC4CEA070CC0F808C04768B743AC
:100CD0000E79C6F3001696403E434660C668AE43A2
:100CE0008D68A5403543C5604C68E4006FD53C4C29
:100CF000256845F480452560246822F0030504F446
:100D000080440094374C2E19D6F808789407250FA4
:100D100008FA05F4A743344CA04201D100242EE088
:100D2000324CA04201D1012429E0314CA04201D132
:100D3000022424E02F4CA04202D103241FE046E00D
:100D40002D4CA04201D1042419E02C4CA04201D129
:100D5000052414E02A4CA04201D106240FE0294CBE
:100D6000A04201D107240AE0274CA04201D1082467
:100D700005E0264CA04201D1092400E00A24AC4041
:100D80003C43C6F80848D9F800404D464E689C439D
:100D9000F60300D51C432C60DAF8004055464E6837
:100DA0009C43B60300D51C432C60DBF800405D4635
:100DB0004E689C43F60200D51C432C60DEF80040D0
:100DC00075464E689C43B60200D51C432C60521CED
:100DD000102AFFF43CAFBDE8F88F0000003C014052
:100DE000443802400030014000000240000402404C
:100DF00000080240000C02400010024000140240B3
:100E000000180240001C0240002002400024024062
:100E10000AB1816170470904FBE7000001480068DE
:100E2000704700002000002002480168491C016052
:100E30007047000020000020032010B500F09AF851
:100E4000002000F005F800F03DF8002010BD000083
:100E500000B500220146192087B000F06BF8192078
:100E600000F05CF81348016841F00101016000687E
:100E700005A900F001000690684600F059FD00F059
:100E800095FD0D4940000D4AB0FBF1F10C480260A0
:100E900040F2E732491E41600021C0E90321816030
:100EA00000F07EFF10B1012007B000BD044800F043
:100EB00090FFF9E74438024040420F000000014033
:100EC000C4360020032010B500F054F800226FF063
:100ED0000B00114600F02EF800226FF00A001146B8
:100EE00000F028F800226FF00900114600F022F807
:100EF0000022501F114600F01DF80022101F11465D
:100F000000F018F800220F21901E00F013F80022C4
:100F10000F21BDE81040501E00F00CB8012100F078
:100F20001F0291404009800000F1E020C0F800114C
:100F3000704700000E4BF0B41B68C3F30223C3F1EB
:100F40000704042C00D904241D1D072D01D2002301
:100F500000E0DB1E012606FA04F56D1E0D409D40E3
:100F60009E40761E164045EA0601F0BC01F06CB9C1
:100F70000CED00E0064A00F0070110684FF6FF0391
:100F8000184040EA01200349084310607047000000
:100F90000CED00E00000FA0501680122C0F8B8235A
:100FA000002280F8B023886940F000608861486DB5
:100FB000024A1043486500207047000003000010FB
:100FC000F0B504004FF0000789B054D0032084F836
:100FD0007D03204600F05AF8206801F02BFD04F153
:100FE0001001684624220E46FFF768F994E80F00C6
:100FF00001F01AFC2068002101F044FD01250022C7
:10100000C7EBC70004EB800080F8355080F83470DF
:1010100047877F1C80F837200F2FC26302648264E9
:10102000EED300204FF48273C0EBC00103EB8007C6
:1010300004EB810181F8D92181F8D801488781F832
:10104000DB21C1F8E021C1F8E421C1F8EC212168DD
:10105000CA51401C0F28E7D3242231466846FFF7C7
:101060002DF994E80F0001F03BFC84F87D53606A91
:10107000012803D005E0012009B0F0BD2046FFF7AC
:101080008BFF206801F020FC0020F5E700B5006828
:1010900087B0B0F1A04F21D14FF4E850009002206A
:1010A000019000200290032003900A2004900C4835
:1010B0006946FFF7BFFD0B48016841F08001016000
:1010C000006800F08000059006481030016841F487
:1010D00080410160006800F48040059007B000BDC9
:1010E00000000240343802401848F8B5016841F069
:1010F000805101600068164D00F080500090286813
:1011000040F480302860FFF789FE4FF47A76044679
:1011100004E0FFF783FE001BB0420FD86868C003ED
:10112000F7D5286840F400302860FFF777FE0446C2
:1011300006E0FFF773FE001BB04201D90320F8BDA3
:1011400068688003F5D50020F8BD000040380240F3
:10115000007000402DE9F84F04460078DFF88C94C9
:101160004FF000084746C0070FD0D9F8001021F40F
:101170000001C9F80010D9F80010626B1143C9F8DA
:101180000010606B08B94FF001082068DFF860B408
:10119000000311D5DBF80010E26B21F4401111437C
:1011A000CBF80010E06BB0F5801F01D018B103E060
:1011B0004FF0010800E001272068C00211D5DBF8DC
:1011C0000010226C21F440011143CBF80010206C78
:1011D000B0F5800F01D018B103E04FF0010800E036
:1011E00001272068C10101D54FF00108800653D5C1
:1011F000FE483830016841F0805101600068FD4EC2
:1012000000F080500090316841F480713160FFF748
:1012100005FE054604E0FFF701FE401B64287DD86B
:101220003068C005F7D5F24E1C3E306810F44070AF
:1012300021D0218E01F4407181421CD03168326886
:1012400021F4407142F480323260326822F48032FC
:10125000326031603068C0070DD0FFF7DFFD054612
:1012600041F2883A04E0FFF7D9FD411B5145D6D839
:1012700030688007F7D5206BC0F3012103297CD0AB
:10128000D9F8001021F4F811C9F800103168228E45
:10129000C2F30B02114331602078C0060BD5DBF896
:1012A000001021F08071CBF80010DBF80010A26B69
:1012B0001143CBF8001020884104CF4805D50168C0
:1012C000626E21F44031114301602188090405D583
:1012D0000168A26E21F44021114301602168C90315
:1012E00005D50168E26E21F44011114301602168C7
:1012F000890305D50168226F21F440011143016083
:101300002178490605D50168626C21F0030111437B
:1013100001602178090607D5016800E003E1A26CAD
:1013200021F00C01114301602188C90505D5016830
:10133000E26C21F03001114301602188890505D557
:101340000168226D21F0C001114301602188490527
:1013500005D50168626D21F4407111430160218857
:10136000090505D50168A26D21F4406111430160B2
:101370002188C90407D5016800E024E0E26D21F46A
:101380004051114301602188890405D50168226E0E
:1013900021F44041114301602168490205D50168EB
:1013A000A26F21F08061114301602168890215D587
:1013B0000168E26F21F0006111430160E16FB1F15A
:1013C000006F0AD00AE0D9F800208C4B22F4F81202
:1013D00018400243C9F8002058E7012721680A078E
:1013E00000D50127490305D50168626F21F04071DE
:1013F000114301602168090206D50168D4F88020F4
:1014000021F0805111430160B8F1000F47F6C07A16
:101410004FF440354FF070664FF0E04903D120683B
:10142000B0F1007F7ED171480838016821F08061F9
:101430000160FFF7F3FC804605E0FFF7EFFCA0EB4F
:10144000080064286FD86948083800680001F4D49F
:101450002078C1076A482DD0616B59BB016895FAA5
:10146000A5F201F44031B2FA82F2D140026896FA54
:10147000A6F39AFAAAFC02F07062B3FA83F3BCFAFC
:101480008CFCDA40636803FA0CF395FAA5FCBCFA0D
:101490008CFC01FA0CF10B4396FAA6F1B1FA81F13A
:1014A0008A401343A16899FAA9F2B2FA82F29140F4
:1014B0000B43036021680A0303D5E26BB2F5801F7A
:1014C00005D0C9023CD5216CB1F5800F38D1016837
:1014D00095FAA5F201F44031B2FA82F2D1400268E5
:1014E00099FAA9F39AFAAAFC02F0E042B3FA83F35C
:1014F000BCFA8CFCDA40636803FA0CF395FAA5FC9D
:10150000BCFA8CFC01FA0CF196FAA6FC0B43E168DC
:10151000BCFA8CFC01FA0CF10B4399FAA9F1B1FA6F
:1015200081F101E07CE0F5E08A4013430360DBF8E1
:101530000010626A21F01F01521E1143CBF8001007
:101540002168C9012CD5016801F0706396FAA6F1F3
:10155000B1FA81F123FA01F8016899FAA9F29AFA2D
:10156000AAF301F0E041B2FA82F2B3FA83F3D14078
:10157000626895FAA5FCBCFA8CFC9A40236903FAD0
:101580000CF396FAA6FC1A43BCFA8CFC08FA0CF38E
:101590001A4399FAA9F3B3FA83F399400A43026014
:1015A000216889011BD59AFAAAF2616895FAA5F318
:1015B000B2FA82F2B3FA83F3914022699A4096FA22
:1015C000A6F31143E268B3FA83F39A4099FAA9F3B8
:1015D0001143A268B3FA83F39A40114301600348B0
:1015E0000838016841F0806101600BE00838024072
:1015F0008C3802400070004090380240FFFCFF0F22
:1016000084380240FFF70AFC804605E0FFF706FC3D
:10161000A0EB080064287DD86C4800680001F5D56F
:10162000002F78D06948016821F080510160FFF7F0
:10163000F5FB074604E0FFF7F1FBC01B642869D8FF
:1016400062480068C0438000F5D5216860480A03FD
:1016500001D5E26B1AB1C90237D5216CA9BB01686B
:1016600095FAA5F201F44031B2FA82F2D140026853
:1016700099FAA9F39AFAAAF702F0E042B3FA83F3CF
:10168000B7FA87F7DA406369BB4095FAA5F7B7FA6E
:1016900087F7B94096FAA6F70B43A169B7FA87F71F
:1016A000B9400B4399FAA9F1B1FA81F18A40134389
:1016B0000360DBF800206FF0FF07A36A22F4F85202
:1016C00007EB03231A43CBF800202168890231D5A8
:1016D000E16FB1F1006F2DD1016896FAA6F201F029
:1016E0007061B2FA82F2D140026899FAA9F39AFACB
:1016F000AAF702F0E042B3FA83F3B7FA87F7DA40C9
:10170000636995FAA5FCBCFA8CFCBB40276A07FA12
:101710000CF701E051E057E03B4396FAA6F7B7FA21
:1017200087F7B9400B4399FAA9F1B1FA81F18A40E0
:10173000134303602178090731D5016896FAA6F2B0
:1017400001F07061B2FA82F2D140026895FAA5F315
:101750009AFAAAF702F44032B3FA83F395FAA5F5A0
:10176000DA406369B7FA87F7B5FA85F5BB40AA4056
:10177000134396FAA6F2B2FA82F2914099FAA9F2CC
:101780000B43E169B2FA82F291400B430360DBF84C
:101790000010E26A21F440311143CBF800100B4CE9
:1017A000206840F080502060FFF738FB054607E0D6
:1017B000FFF734FB401B642802D90320BDE8F88FF3
:1017C0002068C0438000F3D40020F7E700380240CF
:1017D000883802402DE9F047DFF8448104460E4680
:1017E000D8F8000000F00F00B0420CD2D8F800107A
:1017F00021F00F013143C8F80010D8F8000000F0C4
:101800000F00B04262D12078464F800705D5386876
:10181000A16820F0F000084338602078C00744D069
:10182000404960680839012816D00968022816D096
:10183000890700294ADA396821F003010143396038
:10184000FFF7ECFA0546606841F2883101280ED0B6
:101850000228894617D024E009688903E9E789014D
:10186000E7E7FFF7DBFA411B494501D916E0894656
:101870003868C0F381000128F3D116E0FFF7CEFAF3
:10188000411B49450AD83868C0F381000228F5D1C8
:101890000BE0FFF7C3FA411B494502D90320BDE81D
:1018A000F087386810F00C0FF3D1D8F800104046DC
:1018B00001F00F01B1420BD9016821F00F01314352
:1018C0000160006800F00F00B04201D00120E6E79F
:1018D0002078400705D53868E16820F4E0500843D7
:1018E00038602078000706D53868216920F4604008
:1018F00040EAC100386000F071F83968F02292FACD
:10190000A2F201F0F001B2FA82F2D140064A515C33
:10191000C840064908600020FFF79AFA0020BEE799
:10192000003C024008380240648100082400002086
:101930000F2202600C4A136803F00303436013682C
:1019400003F0F0038360136803F4E053C36012688C
:101950004FF4E05303EAD20202610448006800F049
:101960000F0008607047000008380240003C024049
:101970000148006870470000240000200848094919
:10198000006809684FF4E05292FAA2F201F4E051C3
:10199000B2FA82F2D140044A515CC840704700005C
:1019A00024000020083802407481000808480949D2
:1019B000006809684FF4604292FAA2F201F46041B3
:1019C000B2FA82F2D140044A515CC840704700002C
:1019D000240000200838024074810008194830B5FE
:1019E000006810F00C01184812D0441004290ED0E1
:1019F00008290DD1134A121F1168136801F03F0125
:101A00005D0247F6C07304D5B4FBF1F003E0204655
:101A100030BDB0FBF1F01168194093FAA3F3B3FAAB
:101A200083F3D940484311684FF4403292FAA2F24E
:101A300001F44031B2FA82F2D140491C4900B0FBB6
:101A4000F1F030BD083802400024F4002DE9F84FD1
:101A5000DFF8008304460078A8F10409A9F1040521
:101A6000C0074AD0D8F800104046C1F381010129CF
:101A700008D00068C0F3810002280AD1D9F800001C
:101A8000400206D52868800337D5606800286ED0EC
:101A900033E06068B0F5803F0BD010B1B0F5A02FF7
:101AA00011D0286820F480302860286820F4802035
:101AB00002E0286840F480302860606888B1FFF751
:101AC000ADF9064609E0286840F480202860F0E778
:101AD000FFF7A4F9801B642872D828688003F7D523
:101AE0000BE0FFF79BF9064604E0FFF797F9801B30
:101AF0006428F1D828688003F7D42078800746D579
:101B0000D8F8001040464FF0F80711F00C0F08D03D
:101B10000068C0F3810002280AD1D9F80000400211
:101B200006D42868800716D5E06801281FD112E086
:101B3000E068002828681BD040F001002860FFF70B
:101B40006DF9064604E0FFF769F9801B0228C3D847
:101B500028688007F7D5286897FAA7F22169B2FAB2
:101B600082F220F0F8009140084328600FE0EEE098
:101B700020F001002860FFF751F9064604E0FFF766
:101B80004DF9801B02281BD828688007F7D42078DD
:101B9000000725D56F4F60696C370028386810D072
:101BA00040F001003860FFF739F9064604E0FFF71E
:101BB00035F9801B022803D838688007F7D50FE075
:101BC0008AE020F001003860FFF728F9064604E0BB
:101BD000FFF724F9801B02287ED838688007F7D4E5
:101BE0002078400750D55B483830016841F080517B
:101BF00001600068584F00F080500090386840F451
:101C000080703860FFF70AF9064604E0FFF706F92E
:101C1000801B642860D83868C005F7D54D4FA06890
:101C2000683701280AD008B1052813D0386820F099
:101C300001003860386820F0040002E0386840F0A5
:101C400001003860A06841F2883A88B1FFF7E6F8F1
:101C5000064609E0386840F004003860EEE7FFF718
:101C6000DDF8811B51456AD838688007F7D50BE04D
:101C7000FFF7D4F8064604E0FFF7D0F8811B514582
:101C80005DD838688007F7D4A06930B3D8F8001061
:101C9000C1F3810102295AD00228286820F08070FF
:101CA000286003D0FFF7BAF804464BE0FFF7B6F818
:101CB000064604E0FFF7B2F8801B02283FD82868E8
:101CC0008001F7D447F6C072D4E9070192FAA2F274
:101CD0000843B2FA82F201E031E036E0616A4FF087
:101CE000FF339140A26A03EB52024FF4403393FA60
:101CF000A3F3B3FA83F39A4011434FF070620843A1
:101D0000E16A92FAA2F2B2FA82F291400843C9F86B
:101D10000000286840F080702860FFF77FF80446D4
:101D200004E0FFF77BF8001B022808D82868800130
:101D3000F7D50AE0FFF772F8001B022802D903204A
:101D4000BDE8F88F28688001F4D40020F8E701206E
:101D5000F6E7000008380240007000404FF0E02134
:101D60000428086903D020F004000861704740F09F
:101D70000400FAE7401EB0F1807F10B501D30120C6
:101D800010BD4FF0E02460610F21601700F05CFA95
:101D90000020A06107202061002010BD704770471F
:101DA00010B5040003D094F8390010B104E001200C
:101DB00010BD204600F00CF8022084F8390020689D
:101DC000211D00F0F1FA012084F83900002010BD37
:101DD00070470168CA6842F00102CA600068016881
:101DE00041F00101016000207047704770B5044662
:101DF000006801694FF00005C943890715D4C1681F
:101E0000C943890711D4E91E0161012020762068A9
:101E100080698007204602D0FFF7E7FF04E000F06A
:101E2000A5F8204600F0A3F8257620680169C9438B
:101E3000490717D4C168C943490713D46FF0040197
:101E40000161022020762068806910F4407F2046DE
:101E500002D0FFF7CAFF04E000F088F8204600F047
:101E600086F8257620680169C943090716D4C16838
:101E7000C943090712D46FF00801016104202076DC
:101E80002068C0698007204602D0FFF7AEFF04E05B
:101E900000F06CF8204600F06AF8257620680169A9
:101EA000C943C90617D4C168C943C90613D46FF022
:101EB00010010161082020762068C06910F4407F7D
:101EC000204602D0FFF791FF04E000F04FF82046D3
:101ED00000F04DF8257620680169C943C90708D18B
:101EE000C168C943C90704D1891E0161204600F0B9
:101EF0003FF8206801696FF08005C943090607D4DF
:101F0000C168C943090603D405612046FFF746FFAF
:101F100020680169C943C90507D4C168C9430906D6
:101F200003D405612046FFF739FF20680169C943E2
:101F3000490609D4C168C943490605D46FF0400178
:101F40000161204600F01EF820680169C943890636
:101F50000BD4C168C943890607D46FF02001016121
:101F60002046BDE87040FFF71ABF70BD704770474C
:101F700000680349884201D1FEF756BF7047000050
:101F800000000140704710B5040003D094F86900C8
:101F900010B107E0012010BD002084F86800204641
:101FA00000F026F8242084F869002068016821F0F8
:101FB00001010160204600F0E9FA0128EBD0606AD7
:101FC00010B1204600F050FA2068416821F4904199
:101FD00041602068816821F02A01816020680168E1
:101FE00041F0010101602046BDE8104000F0A0BAB8
:101FF00000B5006887B00E49884217D10D480168C6
:1020000041F4802101600068694600F48020059059
:102010004FF44070009002200190012002900320B4
:102020000390072004900448FEF704FE07B000BDAB
:102030000048004040380240000C02403348F0B5F0
:10204000016887B041F004010160016801F00401FA
:102050000591016841F080010160016801F0800193
:102060000591016841F001010160016801F0010181
:102070000591016841F002010160016801F002016F
:102080000591016841F008010160016801F0080153
:102090000591016841F04001016000680024694633
:1020A000029400F0400005904FF40050CDE9000488
:1020B0001748FEF7BFFD174F01254FF481460096E4
:1020C000CDE90154694638460394FEF7B3FD40203C
:1020D0000090CDE90154104D694603942846FEF75F
:1020E000A9FD80206946CDE9000428460294FEF748
:1020F000A1FD002231463846FEF78AFE002228461E
:102100004021FEF785FE07B0F0BD000030380240E8
:10211000000802400004024000180240FEB5294CAD
:10212000C022A821251D002722700A2061702E1DC3
:10213000A770E070FF2028706870A8700120EF7011
:10214000327071703946B770F070002004F0D4FE20
:10215000D4F80110231F20781A1F40EA0120A4F1AF
:102160000C010860D5F80110287840EA0120A4F19C
:1021700008010860D6F80110307840EA0120211FDC
:102180000860114811490097CDE901101048111F4E
:1021900001F0CEFF0E4802F011F80D4890F82B0028
:1021A00040070B4809D502F047F803B0094801225F
:1021B000BDE8F0409103FEF72BBEBDE8FE4002F003
:1021C00003B80000100000203D6F00089D3100089A
:1021D000AC050020000402400C480C220A4910B54E
:1021E00001604FF4E1314160C90481600021C160A8
:1021F000C0E904128161C16101624162FFF7C3FE5F
:10220000002800D0FEE710BD004800407C010020FF
:102210000C484FF0A04110B5022201600621416038
:102220000021C0E90321C0E905120122C0E907210C
:10223000C0E90912C162FEF7C3FE002800D0FEE724
:1022400010BD0000EC0100200907090E002806DA85
:1022500000F00F0000F1E02080F8141D704700F13D
:10226000E02080F800147047FFF758FF012001F0CC
:10227000F1FFFBE710B505F0F5FD012803D0BDE83F
:10228000104005F0F3B910BD2C4810B5B4B001688A
:1022900041F080510160006800F080503290284881
:1022A000016841F4404101600068022400F44040AC
:1022B0003290012021904FF4A02022906005CDE9BA
:1022C000274004202990D820CDE92A0409202C9009
:1022D00021A8FFF7BBFB00B1FEE7FEF705FF00B149
:1022E000FEE70F20CDE92D044FF4A0500024072174
:1022F000CDE92F404FF4805031902DA8FFF76AFAB6
:1023000000B1FEE70F4813941F9400906846FEF753
:1023100021FF00B1FEE7FFF72BFB4FF47A71B0FB12
:10232000F1F0FFF727FD0420FFF718FD00220F2131
:10233000501EFEF7FFFD34B010BD000040380240D3
:1023400000700040000120001048016841F4700155
:1023500001600F48016841F0010101600C4A002151
:102360000832116002680B4B1A400260031D0A4AD2
:102370001A60026822F48022026005480C30016075
:1023800058060249803908607047000088ED00E077
:1023900000380240FFFFF6FE103000240148FFF72E
:1023A00025BD0000C4360020F0B502684FF0804E15
:1023B000224D234E234FA842DFF88CC0234B09D077
:1023C000704507D0B04205D0B84203D0604501D077
:1023D000984203D122F070044A682243A8421BD0DD
:1023E000704519D0B04217D0B84215D0604513D00F
:1023F000984211D0164CA0420ED0164CA0420BD0E1
:10240000154CA04208D0154CA04205D0144CA04257
:1024100002D0144CA04203D122F44074CA68224373
:1024200002608A68C2620A688262A84201D0984249
:1024300001D10969016301214161F0BD0000014042
:102440000004004000080040000C0040000401406F
:102450000040014000440140004801400018004095
:10246000001C00400020004090F82410C90706D04E
:1024700001684A68836A22F400321A434A6090F87D
:102480002410890706D501684A68C36A22F480329D
:102490001A434A6090F82410490706D501684A6833
:1024A000036B22F480221A434A6090F82410090733
:1024B00006D501684A68436B22F400421A434A6019
:1024C00090F82410C90606D501688A68836B22F447
:1024D00080521A438A6090F82410890606D5016854
:1024E0008A68C36B22F400521A438A6090F8241061
:1024F000490611D501684A68036C22F480121A4318
:102500004A60016CB1F5801F06D101684A68436CCE
:1025100022F4C0021A434A6090F82410090606D536
:1025200001684A68806C22F4002202434A607047C6
:10253000F8B500250446C566FEF770FC074620681E
:1025400000686FF07E46000708D500223B464FF436
:1025500000112046009600F035F960B92068006847
:1025600040070AD500223B464FF4800120460096E2
:1025700000F028F908B10320F8BD202084F8690094
:1025800084F86A00002084F86850F8BD2DE9F04115
:1025900004468368006910210022E66903436069EC
:1025A000154630430343206806687A4F3E401E4379
:1025B000066020684368E66823F440533343436071
:1025C000A369206A03432068866826F430661E43A8
:1025D0008660714FCE022068704BB8420AD11B68EA
:1025E00013F0030352D0012B7AD0022B76D0032BA9
:1025F00079D177E06A4FB8420AD11B6813F00C0317
:102600006AD0042B6CD0082B68D00C2B6BD169E0FE
:10261000644FB8420AD11B6813F030035CD0102B12
:102620005ED0202B5AD0302B5DD15BE05E4FB8429C
:102630000AD11B6813F0C0034ED0402B50D0802B22
:102640004CD0C02B4FD14DE0584FB8420DD11B6834
:1026500013F4407340D0B3F5807F41D0B3F5007FD1
:102660003CD0B3F5407F3ED13CE0514FB8420FD152
:102670001B6813F4406309D0B3F5806F30D0B3F515
:10268000006F2BD0B3F5406F2DD12BE001212AE054
:10269000484FB8420DD11B6813F440531CD0B3F51A
:1026A000805F1DD0B3F5005F18D0B3F5405F1AD13D
:1026B00018E0414FB84216D11B6813F440430BD0C9
:1026C000B3F5804F0CD0B34208D0B3F5404F0AD1D8
:1026D00008E005E002E0FFE7002104E0022102E05B
:1026E000042100E00821E369B34226D109291DD263
:1026F000DFE801F00508121C151C1C1C1800FFF770
:102700003DF901E0FFF752F94100606801EB50012B
:10271000B1FBF0F082B20AE028496068F6E7FFF703
:102720005DF9F1E760684FF48031EFE7012522F0B1
:102730000F00C2F3420108431CE0092925D2DFE85B
:1027400001F005080B24102424241C00FFF716F9BF
:1027500009E0FFF72BF906E06168194A02EB510224
:102760000EE0FFF73BF90146606801EB5001B1FB59
:10277000F0F080B22168C86008E0616806EB5102A1
:10278000B2FBF1F189B2C16000E001252846BDE845
:10279000F0810000F369FFEF001001409038024023
:1027A0000044004000480040004C00400050004001
:1027B0000014014000780040007C00400048E8011F
:1027C0000024F4002DE9F0411E46174688460446D1
:1027D000069D1CE0681C1AD025B1FEF71FFB801B6C
:1027E000A84214D32068016821F4D07101602068E8
:1027F000816821F001018160202084F8690084F85B
:102800006A00002084F868000320BDE8F081206899
:10281000C16938EA010004D00020B842DAD00020B3
:10282000F3E70120F9E7000070B50446049D0C9918
:10283000069801280CD0E06840F04000E060204697
:1028400000F028F84FF48030A063012D16D01DE071
:10285000A06B20F48030A063E0680D4A1040E06077
:10286000E06820F44010E060012903D1E06840F402
:102870008010E060204600F00DF8E6E7A06840F028
:102880000C00A060A06840F02000A060002070BD97
:10289000BFFFBDFF00210B4A491C91420AD80369C2
:1028A000002BF9DA0021036943F001030361491C9D
:1028B000914201D9032070470369DB07F7D100205B
:1028C00070470000400D030010B5D0F8041841F027
:1028D0000201C0F804180320FDF70EFE002010BD11
:1028E0002DE9F0470D460446DDE90A1A0027DDF818
:1028F0003880089E806B40F40010A063B8F1000F90
:102900000BD1A06B20F40010A063206840F04000C1
:102910002060206840F0800020604FF00009C4F87B
:10292000009ED4F80008C4F80008012904D0D4F8A7
:10293000000840F0030004E0D4F800080BB140F0B8
:102940000100C4F800081021204600F089F8204654
:1029500000F076F84A46C4F81098C4F814984FF07E
:10296000FF30C4F81808C4F81C984FF090434FF09B
:10297000FF0C0FE004EB4710D0F80019002902DA31
:10298000C0F8003901E0C0F80029C0F81029C0F8EB
:1029900008C97F1CBD42EDD800210FE004EB4110B7
:1029A000D0F8007B002F02DAC0F8003B01E0C0F84D
:1029B000002BC0F8102BC0F808CB491C8D42EDD875
:1029C000D4F8100820F48070C4F81008012E0AD141
:1029D0001448C4F83008D4F8300813490843C4F840
:1029E0003008D4F83008A2616FF0804060611EB9F1
:1029F000A06940F01000A061A0690C490843A061E3
:102A0000BAF1000F03D0A06940F00800A061B8F14E
:102A1000010F03D1A06906490843A0610020BDE869
:102A2000F0870000000180000300010000383C80B6
:102A300004000040816821F001018160002070479E
:102A4000002110220261054A491C914201D903204C
:102A500070470369DB06F7D400207047400D030080
:102A60000022202343EA811101610549521C8A4258
:102A700001D90320704703699B06F7D400207047F3
:102A8000400D030010B5C26822F0C042C2600129A7
:102A900001D021B107E0C16841F0005102E0C168F6
:102AA00041F08041C1603220FDF726FD002010BDBD
:102AB00002E008C8121F08C1002AFAD17047704707
:102AC000002001E001C1121F002AFBD17047000065
:102AD00010B500F0A9FABDE81040034900224FF4F8
:102AE0007A7002F01BB90000D12A000882681268CF
:102AF0000A608068016070472DE9F84F0600904633
:102B0000894655D0B8F80A002A284ED3D8F8045080
:102B10004FF4807A2C4634F80E0F504545D1207979
:102B2000062842D1607904283FD1608808283CD12A
:102B3000D4F80E000090A169706818B1814201D1EB
:102B4000012700E000270FB1012300E002236946BE
:102B500004F10802304600F097FAE088504524D18D
:102B60001FB3022001F04CF9E080D4F80E00A06100
:102B70007068C4F80E00A068C4F81200A089E08252
:102B8000A0682860A089A880D9F80010A160B9F8D1
:102B90000400A081D9F80010C5F806104146B9F824
:102BA000040068813046B2699047404601F03FFD1D
:102BB000BDE8F88F70B50A4E0024054604EB4400CA
:102BC00006EBC000017D29B18068A84202D12046F1
:102BD00000F080F8641CE4B20A2CEFD370BD000052
:102BE000F07300202DE9F74F00214FF00A0B044647
:102BF000DA465846D94688468C460F46344B01EB98
:102C0000410E0A2803EBCE02137D08D0ABB154B1BC
:102C100025685668B54206D148B2BDE8FE8F002B44
:102C2000F5D148B209E0012B15D0022B05D3528A09
:102C3000BA4202D317464FFA81FA491CC9B20A298F
:102C4000DCD301994FF0FF3289073ED40A2814D013
:102C500016DAC5B228E01E4B53F83E3033B1558A20
:102C60004545EAD3A8464FFA81F9E6E7568A664514
:102C7000E3D3B4464FFA81FBDFE70198C00724D0C5
:102C8000BAF10A0F02DA0AF0FF050AE0BBF10A0FF7
:102C900002DA0BF0FF0504E0B9F10A0F15DA09F0CA
:102CA000FF05284600F016F834B1094805EB450247
:102CB000216800EBC200416005EB45020448002199
:102CC00000EBC200418268B2A7E71046A5E700000A
:102CD000F073002070B5074D00EB4004002655F856
:102CE000340018B101F0A3FC45F8346005EBC400D2
:102CF000067570BDF07300202DE9FC410E461446A8
:102D00000E210546304601F0D1FC18B16FF00100EC
:102D1000BDE8FC812068294600F024FB08B1314B56
:102D200039E02068C0F303110E291FD0A9686B6831
:102D300000EA01020B409A4208D080B2A0F57E4121
:102D4000A93903D0E86868B305F10C04264B274A7B
:102D5000187800EB400102EBC1010F7D022F24D354
:102D6000276849688F4220D102462CE001208DF867
:102D7000000000208DF801005E208DF802006078D0
:102D80006B4600F07F008DF80300A0788DF80400FA
:102D9000E0788DF8050005F125023146284600F05F
:102DA00033F9B5E76FF00300B2E7002000EB400114
:102DB00002EBC1010F7D022F0AD3276849688F42B9
:102DC00006D1C2B21A703146284600F011F89FE7CA
:102DD000401C40B20A28E9DB32462146284600F072
:102DE00035F895E77C81000884000020F07300200E
:102DF0002DE9F04188460646134802EB420100EBFC
:102E0000C10404F10C05207D022813D1608A032738
:102E1000B0F58E7F04D9211D304600F0DFF807E0C1
:102E2000B0F5877F06D3211D2A46304600F0DCF836
:102E300000B9277506F125022B4641463046BDE80C
:102E4000F04100F0E1B80000F07300202DE9F84FE8
:102E5000824616462530884600904FF0FF370868B6
:102E6000514600F07FFAD0B9D8F80000C0F3031142
:102E70000E2914D0B8F1000F11D080B101215246B3
:102E80004046FFF7AFFE05000BD4DFF8A8B005EB16
:102E900045090BEBC904207D28B146B10EE06FF067
:102EA0000E00BDE8F88F01202075C4F808A0414647
:102EB000504600F093F8002E0746F2D0207DD84609
:102EC00002280AD31C4804F10C0331460570504611
:102ED000009A00F099F8074629E0012827D100223E
:102EE0003046017B012903D100680028F9D172B175
:102EF00001890022032001F045FA040015D0314673
:102F000001F014FB40B1204601F091FB0DE0344686
:102F1000304601F043FC44B158F8390008B101F0E3
:102F200086FB002748F8394001E04FF0FF3738466C
:102F3000B7E70000F0730020840000202DE9F05F67
:102F40001F46904600228946DDF82CB02A21824691
:102F5000032001F017FA06003DD075680D9805F1C1
:102F60000E0400F04DFFE0803868A060B888A081B2
:102F7000DBF80010C4F81210BBF80400E0820A98D5
:102F80000068C4F80E000C980068A0614FF48070CF
:102F900020800820608006202071042060714FF49A
:102FA000C160A881D8F800102960B8F80400A88092
:102FB000D9F80010C5F806103146B9F80400688148
:102FC0005046DAF8182090470446304601F02FFBAF
:102FD0002046BDE8F09F4FF0FF30FAE7014A00F0CD
:102FE00003B800007C8100087FB5064D0124031D55
:102FF000CDE90214CDE9003521331946FFF79EFFD4
:1030000004B070BD8281000830B44C680825A581E9
:103010001D6825609B88A3801368C4F806309288D9
:103020006281826930BC104770B5164D002404EBF4
:10303000440005EBC002117DF1B1508A401C80B202
:103040005082B0F5967F0AD2012906D003290AD012
:1030500004290AD001290BD00EE0052808D3204608
:10306000FFF738FE08E0042000E00220107503E0BE
:103070009068111DFFF7B2FF641CE4B20A2CD6D38E
:1030800070BD0000F07300202DE9F0410E001F46D6
:103090001546044632D0306878B3214600F062F914
:1030A00058BB3078C0F303100E2827D0224639468B
:1030B0003046FFF797FD00281DDB124A00EB400168
:1030C000022302EBC100037584602B68C360AB88E8
:1030D00003820023438252F831605EB142F83130FE
:1030E00004F125022B4631462046FFF78DFF30467E
:1030F00001F09DFA0020BDE8F081FFE76FF00E00BF
:10310000F9E70000F073002070B5044640890D46D1
:103110000E283DD9606801788689CA0714D0012934
:1031200005D01D490622FDF7EDF848B10CE04178C5
:1031300051B980785E2807D1607B40F0100002E032
:10314000607B40F008006073082E03D0B6F5C16FB5
:103150001ED111E095F82B00000719D560890E28C3
:1031600016DB6FF00D01204601F0A0FA80B9294668
:10317000204600F0BBF909E095F82B00000707D5C1
:1031800005F1250122462846FFF7B6FC002070BD58
:10319000204601F04CFAF9E77C81000810B5732154
:1031A00080F82C10742180F82D10044941610449E5
:1031B000816100F0DBFC002010BD0000F92C00084C
:1031C000553D00080B4E05464FF0FF373946306835
:1031D00001F088F80028F9D1284600F05DFD0400D0
:1031E000F4D02A69294690470028F5D0204601F0FE
:1031F0001EFAF1E71C0000200A46032100F072B815
:103200002DE9FE4F364A04468A46D2F8088098F8DF
:1032100000000007850E608904285BD36068017890
:10322000002957D0082955D1506902F11407C0F37D
:1032300003110E294ED01168914600F093F810BB8F
:103240002089082846D32221204601F02FFA00B316
:1032500020890022284481B2022001F093F8060060
:1032600038D070682A464146FDF728F86942304652
:1032700001F01CFA20B92146304601F057F918B187
:10328000304601F0D4F925E0204601F0D0F934466B
:1032900005E06FF02101204601F008FAD0B9666818
:1032A0002946204601F002FAA0B96068FF22396879
:1032B000FF23C160D9F810100161002131707180C5
:1032C00002720122418120468DE806040A463946F1
:1032D00000F0B6F92046BDE8FE4F01F0A8B90000A5
:1032E000A4AB00202DE9FF47914688460022064600
:1032F0002421012001F046F8050027D06C681C222B
:10330000776884F800804FF0000884F80190A4F8F2
:103310000480A4F80680686871680830FCF7CEFF66
:10332000F868039003A800F0BDFA60B1A4F8028029
:103330000122CDF80080FF23CDE90120002128469D
:1033400003AA00F07DF9284601F071F9BDE8FF8776
:103350000A460B21FFF7C6BFEFF30580002800D017
:1033600001207047421C12D088B191F82B2092079F
:103370000BD54A68824208D089680A4000EA0103F6
:10338000934202D10143491C01D000207047012023
:10339000704700002DE9F74F8AB004461425002637
:1033A0000B98478C60680690C08800F03EFDC0F323
:1033B0000C01029100F40050089020891438143F49
:1033C00007971FFA80F9F81707EB5070C0F3CF008A
:1033D000039078E00799894501DC012000E0002096
:1033E0000299089AC1F30C0111430491D8B14846DF
:1033F0001FFA80FA00221421022000F0C3FF5FEAC6
:10340000000B6AD0DBF8040014220699FCF756FF83
:10341000DBF8040005906068284460606089401B08
:10342000554660812CE041F4005004900398C000A0
:10343000DEE76689AE4200D92E4606B3052000F0CD
:1034400063FE070046D060680222CDE90006042032
:103450003B46314601F024F85FEA000840D02046A0
:1034600001F09CF920484146C7E90404584601F0A0
:1034700040F8A81B05042D0C04D02468D9E7246863
:10348000002DD6D10498354600F0BAFC0599C880C5
:103490000AF1140080B200F0B3FC059948800021C5
:1034A0000598418159460B980C9A436998475846AC
:1034B00001F0BDF8A9EB0A001FFA80F9DDE902016D
:1034C000084480B20290B9F1000F83D100200DB002
:1034D000BDE8F08F584601F0AAF84FF0FF30F6E74C
:1034E000384600F00DFAF5E7553B00082DE9F05F8E
:1034F00045680646884604212878B1EB101F03D0A2
:10350000304601F094F86BE000F00F004FF6FF71C9
:1035100001EA8009688800F088FC04463089A042EE
:1035200003D92146304601F00FF971894945E7D3A7
:103530003089A042E4D34048012729694446DFF896
:10354000FCB082464161E968016194F82B00C00734
:1035500009D0616839B1DAF8140088420ED02146EA
:10356000FFF700FF50B91FB1DBF80040002700E073
:103570002468444500D12468002CE6D1DAF8100014
:1035800057464146FFF7EEFE0028B9D1387CC0F31C
:1035900003100E28B4D0002CB2D0E88830F0C00060
:1035A00005D0304600F0B0F8060019D07568C9F1B2
:1035B0000001BD60C7E9004828780007800EB88187
:1035C000304601F073F8687A012816D006280FD02B
:1035D000112808D078692146FFF7C4FE90B11FE09A
:1035E0000020BDE8F09F4146304603F023FD1AE07D
:1035F0004146304601F0A2FE15E041463046FFF755
:10360000FFFD10E0387DC0F303100E2808D04946B6
:10361000304601F04EF8022130467560FFF7ECFDB0
:10362000304601F004F8002038607860B860B88156
:1036300038617861D4E70000A4AB002018010020B5
:10364000FEB5DDE90954089E1AB109B10F6807B942
:10365000211D0096CDE9015400F002F8FEBD0000E6
:103660002DE9F84F16001F4689460546DDE90BA8EF
:10367000DDF828B02DD0142101F018F818B16FF042
:103680000100BDE8F88F6C68277284F809A03068E3
:1036900020614520207084F801B0288900F0B0FB3B
:1036A000174F4FF0000A6080A4F806A0388800F099
:1036B000A7FBA0803888401C3880B9F1000F05D0E6
:1036C000D9F80000E060A4F80AA006E00D48006800
:1036D000F8E768686E4600690090B8F8220040B1CB
:1036E0002989814205D9324641462846FFF752FED4
:1036F000C7E7D8F814304046324629469847C0E715
:103700006C010020788200082DE9F05F4468834650
:10371000207800F00F0005287ED1E08800F085FBBE
:10372000C0044FEA1049608800F07FFB217801F067
:103730000F01494200EB81001FFA80F8584600F063
:10374000ECFE574F0646388830440A2809D93146DE
:10375000204600F099F900285ED0388830440A28C5
:103760005AD87D684FF0000A0CE06869E168884229
:1037700007D1A8692169884203D1A889A188884214
:1037800003D02D68002DF0D106E02DB1E08800F0C7
:103790004CFBC00422D02CE0042000F0B5FC050056
:1037A0000AD13146204600F06FF9B04214DB042004
:1037B00000F0AAFC05000FD02021FCF798FD0320A3
:1037C000E87778681422286005F1080021467D60BA
:1037D000FCF774FD05B30CE05546FBE7E88900F003
:1037E00024FBC00405D01422214605F10800FCF793
:1037F00065FD388830443880A079800606D4A87FDB
:1038000040F00100A87709EB0800A8835946284634
:1038100000F07CF8002800E03CE039D0A88B1422AE
:1038200005F108011430A88368684668304634689A
:10383000FCF744FDA88B00F0E3FA70806FF01309E9
:10384000A6F806A0A6F80AA0D5F8048009E06668E4
:103850004946204600F02AFF2146404600F049FE36
:103860003468002CF3D179688D4205D1002105E040
:103870000868A84202D001460029F9D1284600F084
:10388000B9F8404600F049FE3988081A38804046A9
:10389000BDE8F09F584600F0CAFE0020F8E700009F
:1038A0007001002070B50546134813E090F82B1006
:1038B000CA070FD04A070DD543685BB184682A68F0
:1038C000234002EA04069E4214D0890702D4C1684C
:1038D0008A420FD000680028E8D10848006840B14B
:1038E00090F82B10CA0704D0490702D54168002977
:1038F00000D1002070BD0000180100201C01002034
:103900000146052000F0CCBBFFF7F0BD2DE9F047E4
:10391000D1F80480002401250E460746B8F80200BD
:1039200000F083FA014698F8000000F00F004042D2
:1039300001EB8009B8F8060000F077FA7268C0045D
:10394000030C0020106003EB090093801FFA80F83D
:10395000A2F8068079681DE04868B0F804C06345A5
:103960000DD2116044B1B4F806C0634533D38088EA
:10397000804530D8266000E07E6069B115E02AD02D
:10398000C1888B4227D31CB1E188614500D0002556
:10399000016804460029DFD134B12660E0889188AF
:1039A000884202D0002500E07E60B87FC0070ED0BC
:1039B00065B1786848B14068808830B9116829B12C
:1039C0004868D1888288914203D000252846BDE806
:1039D000F0870246F2E7304600F09FFD04490A886E
:1039E000101A0880304600F022FE0020EFE70000A9
:1039F00070010020074A0B4630B4016854688442C5
:103A000001D1516000E01960014630BC042000F093
:103A100047BB0000700100202DE9F04144680646D4
:103A2000884600256068818891B90068142270601A
:103A300006F108016068FCF741FC01212046FFF710
:103A400087FC204600F069FD0546204600F0EFFDAA
:103A500074680AE0606827460468384600F05DFD37
:103A6000284485B2384600F0E2FD002CF2D14146F0
:103A70003046FFF7BFFF03480188491B01802846F5
:103A8000BDE8F081700100202DE9F047DFF8789063
:103A900000260F460546002211461346D9F80400B9
:103AA000144622E0D0F814C0D5F80C80C4450BD1E0
:103AB000D0F818C0D5F81080C44505D1B0F80CC0B6
:103AC000B5F80480C44509D0641C2AB190F81FC021
:103AD00092F81F80C44501D802460B46D0F800C0BA
:103AE000BCF1000F00D0014660460028DAD122B1B7
:103AF00019461046FFF790FF0644BE4201DA012C3A
:103B0000C9DC3046BDE8F0877001002010B500F038
:103B10000BF8BDE81040034900224FF47A7001F021
:103B2000FDB800000D3B0008094870B50025446849
:103B30000BE0E07F20B1401EE0772546246804E0DA
:103B4000204624682946FFF767FF002CF1D170BD9D
:103B50007001002010B50446406908B100F067FD0F
:103B60002046BDE81040FFF7CBBE000070B5454EC3
:103B70008AB0002504464248802102953060012029
:103B8000706035828DF800508DF80110E1218DF8BC
:103B9000021069468DF804508DF803508DF80550D9
:103BA000C6E90510C005C6E907503046FCF7A8FD78
:103BB00028B994F82B0040F0040084F82B00324A16
:103BC000042332492F48FCF7DBFC304A04232D48FC
:103BD0008032A2F58071FCF79AFC062084F824005C
:103BE00070690121007884F825007069407884F8B4
:103BF00026007069807884F827007069C07884F89E
:103C000028007069007984F829007069407984F887
:103C10002A0040F2DC50608494F82B0040F00A0047
:103C200084F82B0008A8089500F020FB18491422FE
:103C3000086003A81749FCF741FB03A8214600F0E0
:103C400085FB1048FCF7F0FE0E48112102AAFCF794
:103C5000A3FE0298112140F003020A480292FCF7E9
:103C6000ACFF0848122102AAFCF796FE0298122126
:103C700040F0200203480292FCF79FFF0AB070BD9B
:103C8000008002407C360020AC1E00205C06002034
:103C90001C000020508100082DE9F84F0020044648
:103CA00000902B48FCF7A9FC10B10020BDE8F88F6C
:103CB0002748818FD0F840900904090C2DD00322A9
:103CC000042000F05FFB009038B3214840F2F45B21
:103CD000009DD0F8308000266F890FE0A4F2F452E6
:103CE0005242FCF7EBFAD8F80C008046D0F8089066
:103CF000361B0024AAF2F45706F2F456686807EB64
:103D0000040ADA4509EB04013044E7D83A46FCF7E7
:103D1000D5FA2D683C44002DDDD10D4A0021106BF1
:103D200005E0036843F000430360C068491C936BDF
:103D30008B42F6D800219163106800F580504269EB
:103D4000120602D58022426181600098AEE7000031
:103D50007C3600202DE9F05F27480E46C56A00201A
:103D600081460446D5F808A031E0286800280CDB1D
:103D7000B6F80A80002717E0A4F2F4525242FCF78A
:103D80009DFAED682868002802DA6FF0070025E048
:103D9000D5F808A03F1BA9EB04000024ABF2F458AF
:103DA00000F2F45907F2F457706808EB040B40F284
:103DB000F4518B4500EB07010AEB0400DCD84246C6
:103DC000FCF77CFA366809EB080044448146002E73
:103DD000CBD101460848FCF769FE00200649096876
:103DE00001F580514A69920603D520224A610022DA
:103DF0004A60BDE8F09F00007C36002000BA7047A2
:103E000040BA704710B500F01FFF00F057F800F0FF
:103E100051F900F0B5F903F00BF901F08DFABDE8A6
:103E2000104000F0A9BF00BA704740BA70470000C8
:103E300086B0FDF701F8FEF727FAFEF7FFF8FEF768
:103E4000CBF9FEF7E5F9074914226846FCF736FA84
:103E50000021684600F07AFA0349086000F001FA90
:103E6000FEE700003C810008000000200146002021
:103E7000842900D0C81C704770B504001AD00E4DBC
:103E80002868844216D36868844213D205F10C0076
:103E900000F00EFFA4F1080000210171A96888421A
:103EA00000D2A86000F080FC0348BDE870400C30F0
:103EB00000F00DBF70BD00009C0000200C484FF4C6
:103EC000C8630C4A20F0030130B40024116001F5EE
:103ED000C8600B804C800C71012450600471038019
:103EE000438002F10C00916030BC00F0E4BE0000A1
:103EF000E37400209C0000202DE9F04100280DD043
:103F0000C01C4FF6FC7100EA01050C2D4FF4C86689
:103F100001D20C2504E0B54202D90020BDE8F081B1
:103F2000274800F0C5FEDFF898E0C5F5C862AEF19D
:103F30000C0EDEF80870DEF80000391A89B239E09C
:103F400044182379A3BB23885B1A083BAB4230D3C8
:103F5000228805F114034FF0010C521A083A9A42D4
:103F600011D34A19083293B2C21800251571258859
:103F700015805180238084F804C01188B14204D098
:103F8000821C8B5201E084F804C0BC4202D009E0DC
:103F900039880F18397919B1DEF804108F42F7D13A
:103FA000CEF80870064800F092FE04F10800B5E76C
:103FB000FFE7415A8A42C3D8014800F088FEACE7C7
:103FC000A80000202DE9F047C91C07464FF6FC70F9
:103FD00001EA00040C2C4FF4C86A01D20C2401E061
:103FE000544512D82D490868874213D34A6897422E
:103FF00010D2A7F108058846281A86B22888801BA7
:1040000008381FFA80F94C4503D94FF00000BDE88D
:10401000F08701D13846FAE7204800F10C0000F0A3
:1040200047FE28884246D8F80010002300EB01081C
:1040300098F80400D8B104F11400484512D830199A
:10404000D2F808C0083084B20819604500D29060E8
:1040500003712A88028046802C800088504501D058
:10406000891C44520D480C3000F031FED2E7301963
:1040700094680830B8F800C080B2444501D10C18EB
:1040800094600A181371A2F800C056802880128824
:104090005245E7D0891C5052E4E700009C00002004
:1040A0000D2804D2024A52F82000FEF71FBD7047C7
:1040B000AC00002030B50020401C80B20D28FBD39E
:1040C000054D002455F8240000F008F8641CA4B243
:1040D0000D2CF7D330BD0000AC0000208268002119
:1040E00011604168C91C002221F0030107E08368C8
:1040F000521C1B680B60836819600388194443884D
:104100009342F4DC704700000D2801D30020704773
:10411000024951F8200000F003B80000AC00002074
:1041200081680868002801D002680A6070470000B2
:104130002DE9F041044606A890E8E0000020606008
:10414000A060E06084F82B00032084F82000E56183
:104150000A4D287884F82E00401C287020462761DC
:1041600000F01CF82046B04710B10020BDE8F081F7
:104170006868206020466C60F8E7000014010020A9
:104180007047C90709D04168002906D090F82B1064
:10419000090702D5011DFEF721BF704770B50C4617
:1041A0000546114600F044F81946284600F019F873
:1041B00021462846BDE8704000F018B801498860E3
:1041C000704700001401002090F82B10CA0707D098
:1041D00021F0010180F82B10090701D5FEF7EABC98
:1041E000704701B10968C1607047000070B50C00EC
:1041F000054601D0206801E00C48006869688842E3
:1042000012D0281D214601F0F5FA281D214602F0A2
:1042100099FF3CB12068012168602846BDE87040E4
:10422000FFF7AFBF0020F6E770BD000078820008FE
:1042300001B109688160704790F82B10CA0708D156
:1042400041F0010180F82B10490702D50321FFF747
:1042500098BF704710B500B9012003F079F800202D
:1042600010BD10B503F03AF9002010BD012910B5BA
:1042700001D0002010BD03220021012003F033FAF9
:10428000040004D000231A46194603F069FB2046B7
:1042900010BD000038B5002405460094FFF75CF817
:1042A00090B16946284603F015FC012801D0FF2093
:1042B00038BD009888B10A494FF080500860BFF3BC
:1042C0004F8FBFF36F8F08E0002328461A46194628
:1042D00003F046FB012800D0FF24204638BD000033
:1042E00004ED00E038B505004FF0000000900FD05D
:1042F0000024481C0ED001B10C46FFF72DF8B8B1D0
:1043000000216A46284603F03BFC012818D104E04E
:10431000802038BD4FF0FF34EFE7009890B10A4994
:104320004FF080500860BFF34F8FBFF36F8F09E0ED
:10433000002322461946284603F00CFA012801D032
:10434000FF2038BD002038BD04ED00E030B585B059
:104350000D460446B0F90800FFF788FD00210090E3
:1043600004AA2B46CDE901210391208A82B2D4E927
:10437000001003F08DFC012802D0002005B030BDF4
:104380000498FBE72DE9F047052817460D4659D25A
:10439000DFE800F0030507090900362604E02226BD
:1043A00002E00E2600E000264FF001094FF0000861
:1043B000F7B3012F62D0022F60D0032F42D10C201F
:1043C000FFF7A2FE040019D0A0192773133041464D
:1043D00020F00300F61CC4E9008026F003002581CC
:1043E000C0F51470A84200D9284660812D1A2646CF
:1043F0004FF4147A8846A4F80E901BE000F08EF972
:1044000020E00C20FFF780FEB8B10773A9B280F856
:104410000D805145C0F800803060018100D35146C5
:10442000418100F1100242606D1AA0F80E9000E088
:104430000BE00646002DE4DC2CE000F06FF920468E
:1044400000F0F5F80020BDE8F08706F1130020F039
:104450000301E81C20F00300084480B2FFF74CFD84
:10446000041EF0D0A019133020F0030060602581F5
:104470006581C4F8008084F80C800BE00B20FFF706
:1044800043FE041EDFD0C4F8048025816581C4F892
:10449000008027732046A4F80E9084F80D80D2E7A0
:1044A00070B50528DDE9044511D2DFE800F0030509
:1044B00007090900362004E0222002E00E2000E077
:1044C0000020C01C20F003004618AE4201D9002095
:1044D00070BD00251D6014B12044586000E05D608F
:1044E000022058730120198159811A73D881184606
:1044F00070BD002810B50FD000290DD004E003894D
:104500000C892344038110460268002AF7D10289EE
:104510000B891A440281016010BD002102E000688D
:10452000491CC9B20028FAD1084670472DE9F04766
:104530004FF000070C4605003E466FF00E0932D0E2
:104540007CB32889218988422DD36FF0050A6889B8
:104550006189C01B891B884201DB88B200E080B200
:10456000804660684246811968683844FBF7A6FEB9
:1045700007EB080087B206EB080086B26089B042FC
:1045800001D8246800266889B84202D12D68002726
:1045900045B15CB160892189884207D1206860B942
:1045A00004E000E06CB14846BDE8F0873DB16889A1
:1045B0002989884203D1286808B15046F4E7002CC5
:1045C000C5D10020F0E72DE9F047002816468946BE
:1045D0004FF0000806D0B9F1000F02D000270446C2
:1045E00020E00020BDE8F0872BB16089984202D816
:1045F000181A83B215E06089C01A85B2B54200D995
:10460000354660682A46C11809EB0700FBF756FEDD
:1046100008EB05001FFA80F8781987B2701B86B284
:10462000002324680EB1002CDED14046DAE770B5D5
:1046300000281BD00024C189491E0904090CC1812E
:1046400013D1427B017B0568920702D50169884737
:1046500007E003290BD001290CD002290AD0FFF76B
:104660000BFC641C2800E4B2E5D1204670BD014675
:104670000C2001E001460B20FFF712FDF1E70000DE
:10468000084870B5002505700748046806E0606FAB
:1046900018B102F086F9656770BDE468002CF6D1A8
:1046A00070BD0000200100203C010020002200F02D
:1046B00003B80122AFF3008030B541B138B1002911
:1046C00007DA4B429DB24389AB4225D302E000207A
:1046D00030BD8DB2037B446833B1032B04D0022B71
:1046E0000AD0012B08D017E0621A426000F11003D3
:1046F0009A4208D244600FE000290BDA4289AA42AC
:104700000AD3621A426042890A44428102891144F2
:104710000181DCE7002AF4D1012030BD10B5084C3E
:10472000207801212170002808D100220548114677
:1047300002F0B4FB002801D00020207010BD000062
:10474000200100208146000870B502898A4224D9E0
:104750008A1A0D46044605E0281A85B220891044BD
:10476000208124686089A842F6D3207B68B96089DB
:10477000A8420AD0607B800707D4A088001B284489
:1047800081B22046FFF71EFC044665812581206822
:1047900008B1FFF74CFF0020206070BD002802D058
:1047A000C189491CC181704730B5134C018822680A
:1047B000931C114488420DD00D795DB96568A942FA
:1047C00008D0A5688D4200D1A0600D880580851AAB
:1047D0000988CD524188114481420BD00D79002DBA
:1047E00008D1A568854200D1A16004880C80891A8F
:1047F0000088C15230BD00009C00002070B50B4DF8
:10480000044628684460E8682968844205D2686BD9
:10481000091DBDE8704002F0CDBC286B091D02F0F7
:10482000C9FCA86A844200D2AC6270BD4C00002072
:1048300070B5134E134D1FE002F088FE306820B1B2
:10484000002403F017FCBCB901E00124F9E702F0F1
:10485000D5FCF068C468201D02F08CFCA868401EDE
:10486000A8606868401E686002F0ECFC206B02F0F3
:10487000FFFC204602F0FCFC68680028DCD170BD1B
:10488000C87300204C00002030B4026C0B46002A94
:104890000BD0C1681144C1604468A14201D30168D2
:1048A000C160184630BCFBF709BD30BC704770B51D
:1048B0001646026C0025044682B1C6B1E068FBF7DB
:1048C000FDFCE168206C091AE1602268914202D285
:1048D0006168081AE060022E16D01AE02068C0B99C
:1048E000606803F03BFB05460020606011E0A068B3
:1048F000FBF7E4FC216CA0680844A0606168884272
:1049000007D32068A06004E0A06B10B1A06B401E2C
:10491000A063A06B401CA063284670BD10484FF4F4
:104920007051420706D00E49C01D20F00700411A01
:10493000C1F570510B4A002301440839C2E9000354
:10494000103A21F0070111604B600B600B1AC0E9AF
:10495000001393604FF000405360D0607047000038
:104960000037002038000020074E4FF08054074DDC
:10497000FFF75EFF30680128FAD92C60BFF34F8F34
:10498000BFF36F8FF4E700000073002004ED00E038
:1049900030B5114900E011460A688242FBD34B68EA
:1049A0005C18844203D14068184448600846436854
:1049B0001C18944209D1084C103C2468A24209D02A
:1049C00052681A4442600A6812680260814200D04C
:1049D000086030BD0460F9E7380000200648016B2C
:1049E000096829B1016BC968C96849688162704763
:1049F0004FF0FF31FAE700004C0000200A48406801
:104A0000401C4FF0500072B680F3118805D0BFF300
:104A10004F8FBFF36F8F62B6FEE7BFF34F8FBFF3C9
:104A20006F8F62B6FEE700004000002070B50446BC
:104A300002F0E4FB04F124050AE0606A58B128465C
:104A400003F0DCFA08B102F0B9FCA06C401EA064CF
:104A5000A06C0028F1DC4FF0FF35A56402F0F2FBFA
:104A600002F0CCFB04F110060AE0206958B1304690
:104A700003F0C4FA08B102F0A1FC606C401E60644F
:104A8000606C0028F1DC6564BDE8704002F0DABBC0
:104A90002DE9F0410026054602F058FD344F3868F4
:104AA00008B9FFF73BFFF86805424FD1E5B3083579
:104AB000680710D005F00700C0F10800054468073A
:104AC00009D0502072B680F31188BFF34F8FBFF327
:104AD0006F8F62B6FEE73DB37868854236D82449C9
:104AE00010310846046801E0214604466068A84287
:104AF00002D220680028F7D13868844226D00E6898
:104B00002068086008366068411B102911D96019B7
:104B100042070AD0502072B680F31188BFF34F8F3E
:104B2000BFF36F8F62B6FEE710E041606560FFF78C
:104B30002FFF61687868401A7860BA68904200D2A6
:104B4000B860F86801430020C4E9000103F092FA5C
:104B5000700709D0502072B680F31188BFF34F8FD1
:104B6000BFF36F8F62B6FEE73046BDE8F08100000C
:104B7000280000200449086818B10868026D521C1A
:104B800002650868704700004C000020031F10B544
:104B90004FF080741C601B1F1960191F044B0B60C1
:104BA00014390A60091F44386FF002020A6010BD10
:104BB000FD4900082DE9F84390460D46064603F0EE
:104BC0005FF9044605B96D464FF0FF37B8F1000FA5
:104BD0000CD0306800234246294602F0BBFD012874
:104BE0000CD0002028603846BDE8F88330680023E8
:104BF0003A46294602F0AEFD0128F7D103F040F90C
:104C0000001BF1E72DE9F0410F46054603F038F9A6
:104C100004464FF0FF3657B1002328683A4619463C
:104C200002F098FD01280AD03046BDE8F08100234B
:104C300028683246194602F08DFD0128F7D103F0AD
:104C40001FF9001BF1E700000149002008807047B0
:104C50007801002010B5002204460421062002F04D
:104C600042FD206008B1002010BD4FF0FF3010BDA4
:104C700073B504464FF0FF3500232A4601A920688A
:104C800002F06EFE0128F7D17CBD13B50023006849
:104C900001A91A4602F064FE012802D04FF0FF304D
:104CA0001CBD00201CBD0068002800D001207047FA
:104CB0000021FFF7A7BF10B50446012002F0EEFC6B
:104CC000206008B1002010BD4FF0FF3010BD002360
:104CD00000681A46194602F043BE000070B5064649
:104CE0000D4886B00C46154600880A9906280DD254
:104CF0000020009104AA3146CDE901209AB22B464A
:104D00000390204602F0C4FF012802D0002006B024
:104D100070BD0498FBE700007801002070B51546CF
:104D20000E4604460A20FFF7EFF900280DD0114B7C
:104D30000021C56080E85200196829B14A68A24282
:104D400010D9121B4A600160186070BD54689C4203
:104D500007D9536844681B1B53600A6802600860E7
:104D600070BD114642684B68D31A43600A68002A36
:104D7000F3D0EBE79400002010B54FF47A740649A5
:104D800000222046FFF7CAFF20460449BDE8104034
:104D90000022FFF7C3BF00000D3B0008D12A000826
:104DA0002DE9F047164D884681464FF0FF372868B9
:104DB00030B142685AB141464846FFF7FBFE07E072
:104DC00041464846BDE8F0470022FFF7F3BE3846AB
:104DD000411C296804D04A6882420DD9101A0CE09F
:104DE000086828600A20D1E90246FFF759F9002C2B
:104DF000DDD03046A047DAE700204860BDE8F08704
:104E0000940000202DE9FC5F0446007E0A460A2833
:104E10000DD0DFF8C0800025D4F850B02E46D4F86D
:104E200028A0D4F81090D4F88C7058B120E029480C
:104E300021461C3000F027FF2146BDE8FC5F012021
:104E4000FFF72EB9608B98B1D8F81000A0420AD1B4
:104E5000C068C8F8100008E0C168A14202D1E1684A
:104E6000C16002E008460028F6D10020E06009E0B9
:104E700018481546668B2146183000F004FF0121C2
:104E800088F80010206F08B101F08BFDE06E08B1CA
:104E900001F087FD606F08B101F083FD45B1A08B83
:104EA000231D22465146CDE90060584601F019FD08
:104EB00001202146FFF7F4F8002F09D002B0484640
:104EC000BC466FF00B01BDE8F04F5DF804EB6047A6
:104ED000BDE8FC9F240100200121FFF793BF0000E3
:104EE0002DE9F04105460120FFF70EF9404E040080
:104EF00047D10023F4681A46F06906E0416A611A56
:104F0000994201D30B460246C0680028F6D112B17F
:104F10001046FFF7E1FF0120FFF7F6F8040030D15B
:104F2000092000F0D9FB0120FFF7EEF8040028D19A
:104F3000082000F0D1FB0120FFF7E6F8040020D1A3
:104F40007F2D2B4600D97F23D6F80CC00027B069EF
:104F50003C460BE0427E9A4207D8416AACEB010125
:104F6000B94202D30F4604461346C0680028F1D167
:104F700014B12046FFF7B0FF0120FFF7C5F8040089
:104F800032D09821FBF7B3F965764FF48660A4F828
:104F900066000023A4F868304000E085A085FF206B
:104FA0006372A0724FF40670E0860620A4F84400F5
:104FB000A4F84030A4F84200C01FA0860120A4F845
:104FC0004C00143400F04CFC6064E0636063A06447
:104FD000F0682061B07860730648E372E0660648C6
:104FE000E06784F88230143C2046BDE8F081000080
:104FF00024010020A567000800DD6D00017E012965
:1050000003D0817F41F0100181770121AFF300804F
:105010002DE9FC474B4E0446007E4FF000094FF04F
:10502000010899B3042801D007283FD1A16F19B90D
:10503000A18DB1F5066F39D0A18B231D608B22465F
:10504000CDE90001A16A206D01F04BFC204600F083
:10505000F9FDB069A04209D1C068B06108E0C1683B
:10506000A14202D1E168C16002E008460028F6D101
:10507000C4F80C9086F80080207E042807D03248BF
:105080000068A0420BD101F091FE0CE00EE00A2076
:105090002076F069E060F46101F02AFE03E001206F
:1050A0002146FEF7FDFF0020BDE8FC870527082804
:1050B00041D2DFE800F0041D262F2F404036608BE0
:1050C000002580B13069A04209D1C068306108E094
:1050D000C168A14202D1E168C16002E0084600282F
:1050E000F6D1C4F80C9001202146FEF7D9FF27E045
:1050F000144800252146143000F0C5FD0220214649
:10510000F3E7104800252146183000F0BCFD86F872
:105110000080E8E7204601F082FC050008D12776F0
:1051200006E0204601F07BFC050001D10920207635
:1051300034B115B104E0002502E0204600F0D4FBB4
:105140002846B1E724010020600100202DE9F04746
:105150009A4691460E460746DDF820805FEAC87001
:1051600001D0042500E000250320FEF7CDFF040058
:1051700013D084F80A804FF00008C4E90086308913
:105180001421401B20813046FFF790FA48B1204699
:1051900001F0F9FB0020BDE8F0873046FFF747FA41
:1051A000F8E760684068E060788BFEF729FEE16808
:1051B0000880B88BFEF724FEE16848805046FEF771
:1051C0001DFEE1684860A808000300F5A04040EA21
:1051D0000900FEF715FEE16888812046E168A1F824
:1051E0001280D8E710B504460846FEF75BFB40B1D5
:1051F000B0F9220028B1283880B2844200D220467B
:105200000446204610BDF8B500270446B0F86800F3
:105210007E1E0D46092801D3E80706D0A80700D551
:105220000127F80706D0042105E0A07F40F08000A8
:10523000A07715E00021B4F8660088B1002210467E
:10524000FFF7A0F80028F0D000972A46E36D01464A
:105250002046FFF77BFF0200E7D0E06E10B104E0CC
:105260003046F8BDE26604E0084601680029FBD13B
:1052700002600020A4F86A00A80707D0E06D401C77
:10528000E065B4F86600401EA4F86600E80703D0A5
:10529000A07F40F02000A0775068FFF73EF9B4F8F7
:1052A00068100844A4F868000020F8BD70B5154ED9
:1052B000B078401CB070B46921E094F82110B07847
:1052C00081421BD084F82100A07FC10709D040F0A3
:1052D0000200A077204600F007FBA07F20F003002B
:1052E000A077E568A06F38B100203070204600F04C
:1052F000ADFE30780028DED12C4600E0E468002CBA
:10530000DBD170BD2401002010B50A4C2046E268B4
:105310008088411C89B212B16388984204D2A26885
:105320001432105CA18010BDC01AA180C0B2105C04
:1053300010BD000044010020704700002DE9FC5F13
:10534000CA4E05464068B0606889142873D3C84FB8
:1053500039687869FEF706F800286CD1387DC0F30B
:1053600003100E2867D0B0688089FEF75EFD000B41
:105370006FF0130101EB800294B274800022F2609E
:105380006A89B2EB800F1AD2142ADFD32846FFF7BE
:105390008DF968897080844216D9404201B228464E
:1053A000FFF784F928684168F1607188641A6142E6
:1053B00009B2FFF77BF92889001B288104E08000EF
:1053C00041422846FFF772F9B0680088FEF72DFDCC
:1053D0000146B06801804088FEF727FD0146B068AD
:1053E00041804068FEF71FFD0146B06841603161B1
:1053F0008068FEF718FDB16888607061C889FEF7A3
:1054000014FD0146B068C1818089FEF70EFD00F0F1
:105410003F00307029898146800700D00120DFF8E5
:1054200054B20844F0803A690020B168DBF80040CB
:105430007B69A2461FE014E1B4F81CC0B1F80080FB
:10544000C44516D1B4F81AC0B1F80280C44510D1D1
:10545000D4F804C094450CD1D4F800C09C4508D1C0
:1054600028B1E268C260C4F80CA0CBF8004024B1B7
:1054700040E02046E468002CDED17F480468D7E98C
:10548000040712E0A28B0B889A420DD1628B4B88E5
:105490009A4209D16268824206D12268BA4203D197
:1054A000204601F03FFCDCE0E468002CEAD1DFF8A4
:1054B000CCA10023DAF8000084460BE0428BB1F85F
:1054C0000280424504D10268BA4206D080B12AB1B6
:1054D0000346C0680028F1D10AE048B12BB1C16889
:1054E000D960C0F80CC0CAF8000000F013F9B8E0A9
:1054F000002C7CD0DFF8888100275FEA0970C8F8AB
:1055000000702A89A8F80820C8F80450C8F80C10C0
:10551000B761777003D5687B40F001006873A06FB6
:1055200040B1204600F092FD0C307BD0A06F08B156
:10553000F08890BB2046F46100F0CEFB0C3071D0B7
:10554000707800070FD5D4F88C201AB120696FF05D
:105550000C0120E04748214600F095FB0120214640
:10556000FEF79EFD5EE0B4F86420002032B1E36FE8
:1055700013B12069214698470C3053D07078C0068B
:105580000CD5A07FC006E5D4D4F88C20002AE1D049
:105590006FF00D0120699047DCE743E0B069F8B196
:1055A000A17FC90605D5FFF742F82046FFF794FC16
:1055B00038E0D4F880503DB1D4F810C00023024642
:1055C00021466046A84705E00023024621461846CA
:1055D00001F0E8F810F10C0F24D008B1B069A06711
:1055E000707880061AD5A06F30B1417B00E025E0CD
:1055F00041F02001417311E0A08DB0F5066F01D09C
:10560000401CA085D4F880502DB1002320691A4693
:105610002146A84700E000200C3003D02046F76167
:1056200000F062F9F7614446B761D8F80400002839
:1056300002D0FEF7FCFF6760BDE8FC9F8889FEF79B
:10564000F4FB40070DD4B068094B103301881A1DD4
:105650004088CDE90001F18830690144706901F0AA
:1056600040F92846BDE8FC5FFEF7E1BF4401002099
:10567000A4AB00203C0100204001002038010020A4
:1056800094AB00203EB50446006D401EFEF7B6FB0D
:10569000002203461146204600F0F8F9050014D018
:1056A000201DFEF7FFF898B1062100220092CDE9F7
:1056B0000110A37A221D21462846FDF7C1FF0446AA
:1056C0002846FEF7B4FF20463EBD4FF0FF303EBDFA
:1056D0006FF00304F4E700000D49002330B40546E1
:1056E00018468A69CC6809E0117EA94205D1516A41
:1056F000611A994201D30B461046D268002AF3D1B1
:10570000002803D030BC0021FFF77CBB30BC7047C1
:10571000240100207CB5334E0546307841075FD424
:10572000C1060DD5B068304B1A1D01884088CDE9FF
:105730000001F18830690144706901F0D2F84FE04E
:1057400080074DD5687EFFF7CBFB040040D026488C
:1057500010384169216000696060688B6083B068BF
:105760000088A0830320207630690146401CA06297
:10577000491E616520632869206168696061287A33
:1057800000F00C00207219480168E160046001F02B
:10579000AFFA174901200870204600F00BFAB068F4
:1057A000211DC089A4F86000A4F86200A4F84E008E
:1057B000E08EFFF717FD1221E0862046FFF723FD5C
:1057C000050008D000212046FFF71CFB28467CBDC1
:1057D0004FF0FF307CBD2046BDE87C4000F084B82F
:1057E00000207CBD44010020B4AB00203C0100201F
:1057F0002401002070B5104E0C460546B16900F03A
:105800001DF83169284600F019F8002C12D02068E4
:1058100000280FD006F11400026809E0D06806D015
:10582000136823B129688B4201D1216811600246B7
:10583000002AF3D170BD00002401002070B5054698
:10584000084609E001682A68914204D1C468FFF75C
:1058500043FB204600E0C0680028F3D170BD000083
:105860000249D1E9020210448860704724010020F7
:1058700070B50546C0680C468089FEF7D6FA194E09
:10588000C00715D0204601F08CF8002427E080895D
:10589000FEF7CBFAC00707D00120FEF7B1FA0146A8
:1058A000E8688289114381812046246801F06BF801
:1058B000ACB1E06822893369416811442A891A44ED
:1058C000511AE4D52989CA18E1684968521A002A90
:1058D00005DDC81A81B229816868FEF735FF2C60A2
:1058E00070BD0000440100202DE9F04704466648E1
:1058F0000068A04202D10020BDE8F087B4F8601033
:10590000B4F84C00814200D20846E56E8146A07F83
:1059100080070FD54DB1E8684068FEF784FAA16CA6
:10592000401A29890144494504D92046BDE8F04779
:1059300001F040B8D4F870804FF0000A5FEA080028
:1059400001D18BE08046D8F800000028FAD185E02C
:10595000E8688089FEF769FA206FA8B1A17F11F08D
:10596000440F11D1E06E28B102686AB90089E28E55
:10597000904209D2B4F8660030B1B4F86800092842
:1059800002D211F0A00F75D0207E022807D010207F
:10599000FEF736FA0146E868828911438181214683
:1059A000284600F0A9F820B1A17F41F08001A1773D
:1059B000A2E72868E066207E022803D0A07F20F0BE
:1059C0000300A077E8684068FEF72DFA0646E8680D
:1059D0008089FEF72AFA800700D001202989304407
:1059E0000844216D091A00D52065E8688089FEF712
:1059F0001CFA800700D001202989C8422AD0C5F8A6
:105A000000A0206F70B1E8684068FEF70CFA064607
:105A1000D8F80C004068FEF706FA301A16D504F1E3
:105A2000700602E0256713E03668306850B1C06840
:105A30004068FEF7F8F90746E8684068FEF7F3F9B2
:105A4000381AF1D430682860356006E0C8F8005094
:105A5000A84602E0284600F096FFE56E55B1E868DA
:105A60004068FEF7E0F9A16C401A298901444945D4
:105A70007FF66EAFE06E08B9A4F86AA0A07F20F0B0
:105A80008000A07737E70000600100202DE9F04199
:105A900005460F4688189846143081B2002201202E
:105AA000FEF770FC060023D0688B7468FEF7A8F937
:105AB0002080A88BFEF7A4F96080C4F80480A86A4F
:105AC000FEF79CF9A060B808000300F5A04080B282
:105AD00040F01000FEF794F9A081E88DFEF790F9F0
